{
	"my_ico.sol": {
		"ICO": {
			"abi": [
				{
					"constant": false,
					"inputs": [
						{
							"internalType": "address",
							"name": "investor",
							"type": "address"
						},
						{
							"internalType": "uint256",
							"name": "usd_invested",
							"type": "uint256"
						}
					],
					"name": "buy_tokens",
					"outputs": [],
					"payable": false,
					"stateMutability": "nonpayable",
					"type": "function"
				},
				{
					"constant": true,
					"inputs": [
						{
							"internalType": "address",
							"name": "investor",
							"type": "address"
						}
					],
					"name": "equity_in_tokens",
					"outputs": [
						{
							"internalType": "uint256",
							"name": "",
							"type": "uint256"
						}
					],
					"payable": false,
					"stateMutability": "view",
					"type": "function"
				},
				{
					"constant": true,
					"inputs": [
						{
							"internalType": "address",
							"name": "investor",
							"type": "address"
						}
					],
					"name": "equity_in_usd",
					"outputs": [
						{
							"internalType": "uint256",
							"name": "",
							"type": "uint256"
						}
					],
					"payable": false,
					"stateMutability": "view",
					"type": "function"
				},
				{
					"constant": true,
					"inputs": [],
					"name": "max_tokens",
					"outputs": [
						{
							"internalType": "uint256",
							"name": "",
							"type": "uint256"
						}
					],
					"payable": false,
					"stateMutability": "view",
					"type": "function"
				},
				{
					"constant": false,
					"inputs": [
						{
							"internalType": "address",
							"name": "investor",
							"type": "address"
						},
						{
							"internalType": "uint256",
							"name": "tokens_sold",
							"type": "uint256"
						}
					],
					"name": "sell_tokens",
					"outputs": [],
					"payable": false,
					"stateMutability": "nonpayable",
					"type": "function"
				},
				{
					"constant": true,
					"inputs": [],
					"name": "total_tokens_sold",
					"outputs": [
						{
							"internalType": "uint256",
							"name": "",
							"type": "uint256"
						}
					],
					"payable": false,
					"stateMutability": "view",
					"type": "function"
				},
				{
					"constant": true,
					"inputs": [],
					"name": "usd_to_mytoken",
					"outputs": [
						{
							"internalType": "uint256",
							"name": "",
							"type": "uint256"
						}
					],
					"payable": false,
					"stateMutability": "view",
					"type": "function"
				}
			],
			"devdoc": {
				"methods": {}
			},
			"evm": {
				"assembly": "    /* \"my_ico.sol\":38:2521  contract ICO {\r... */\n  mstore(0x40, 0x80)\n    /* \"my_ico.sol\":170:177  1000000 */\n  0x0f4240\n    /* \"my_ico.sol\":145:177  uint public max_tokens = 1000000 */\n  0x00\n  sstore\n    /* \"my_ico.sol\":258:262  1000 */\n  0x03e8\n    /* \"my_ico.sol\":229:262  uint public usd_to_mytoken = 1000 */\n  0x01\n  sstore\n    /* \"my_ico.sol\":303:304  0 */\n  0x00\n    /* \"my_ico.sol\":271:304  uint public total_tokens_sold = 0 */\n  0x02\n  sstore\n    /* \"my_ico.sol\":38:2521  contract ICO {\r... */\n  callvalue\n    /* \"--CODEGEN--\":8:17   */\n  dup1\n    /* \"--CODEGEN--\":5:7   */\n  iszero\n  tag_1\n  jumpi\n    /* \"--CODEGEN--\":30:31   */\n  0x00\n    /* \"--CODEGEN--\":27:28   */\n  dup1\n    /* \"--CODEGEN--\":20:32   */\n  revert\n    /* \"--CODEGEN--\":5:7   */\ntag_1:\n    /* \"my_ico.sol\":38:2521  contract ICO {\r... */\n  pop\n  dataSize(sub_0)\n  dup1\n  dataOffset(sub_0)\n  0x00\n  codecopy\n  0x00\n  return\nstop\n\nsub_0: assembly {\n        /* \"my_ico.sol\":38:2521  contract ICO {\r... */\n      mstore(0x40, 0x80)\n      callvalue\n        /* \"--CODEGEN--\":8:17   */\n      dup1\n        /* \"--CODEGEN--\":5:7   */\n      iszero\n      tag_1\n      jumpi\n        /* \"--CODEGEN--\":30:31   */\n      0x00\n        /* \"--CODEGEN--\":27:28   */\n      dup1\n        /* \"--CODEGEN--\":20:32   */\n      revert\n        /* \"--CODEGEN--\":5:7   */\n    tag_1:\n        /* \"my_ico.sol\":38:2521  contract ICO {\r... */\n      pop\n      jumpi(tag_2, lt(calldatasize, 0x04))\n      shr(0xe0, calldataload(0x00))\n      dup1\n      0x5de23c64\n      gt\n      tag_10\n      jumpi\n      dup1\n      0x5de23c64\n      eq\n      tag_6\n      jumpi\n      dup1\n      0x6c22f682\n      eq\n      tag_7\n      jumpi\n      dup1\n      0xd450d0f9\n      eq\n      tag_8\n      jumpi\n      dup1\n      0xfc4e3861\n      eq\n      tag_9\n      jumpi\n      jump(tag_2)\n    tag_10:\n      dup1\n      0x0316b7c4\n      eq\n      tag_3\n      jumpi\n      dup1\n      0x10c51c1b\n      eq\n      tag_4\n      jumpi\n      dup1\n      0x54572e09\n      eq\n      tag_5\n      jumpi\n    tag_2:\n      0x00\n      dup1\n      revert\n        /* \"my_ico.sol\":271:304  uint public total_tokens_sold = 0 */\n    tag_3:\n      tag_11\n      tag_12\n      jump\t// in\n    tag_11:\n      mload(0x40)\n      dup1\n      dup3\n      dup2\n      mstore\n      0x20\n      add\n      swap2\n      pop\n      pop\n      mload(0x40)\n      dup1\n      swap2\n      sub\n      swap1\n      return\n        /* \"my_ico.sol\":1191:1367  function equity_in_usd(address investor) view public returns (uint) {\r... */\n    tag_4:\n      tag_13\n      0x04\n      dup1\n      calldatasize\n      sub\n        /* \"--CODEGEN--\":13:15   */\n      0x20\n        /* \"--CODEGEN--\":8:11   */\n      dup2\n        /* \"--CODEGEN--\":5:16   */\n      lt\n        /* \"--CODEGEN--\":2:4   */\n      iszero\n      tag_14\n      jumpi\n        /* \"--CODEGEN--\":29:30   */\n      0x00\n        /* \"--CODEGEN--\":26:27   */\n      dup1\n        /* \"--CODEGEN--\":19:31   */\n      revert\n        /* \"--CODEGEN--\":2:4   */\n    tag_14:\n        /* \"my_ico.sol\":1191:1367  function equity_in_usd(address investor) view public returns (uint) {\r... */\n      dup2\n      add\n      swap1\n      dup1\n      dup1\n      calldataload\n      0xffffffffffffffffffffffffffffffffffffffff\n      and\n      swap1\n      0x20\n      add\n      swap1\n      swap3\n      swap2\n      swap1\n      pop\n      pop\n      pop\n      tag_15\n      jump\t// in\n    tag_13:\n      mload(0x40)\n      dup1\n      dup3\n      dup2\n      mstore\n      0x20\n      add\n      swap2\n      pop\n      pop\n      mload(0x40)\n      dup1\n      swap2\n      sub\n      swap1\n      return\n        /* \"my_ico.sol\":145:177  uint public max_tokens = 1000000 */\n    tag_5:\n      tag_16\n      tag_17\n      jump\t// in\n    tag_16:\n      mload(0x40)\n      dup1\n      dup3\n      dup2\n      mstore\n      0x20\n      add\n      swap2\n      pop\n      pop\n      mload(0x40)\n      dup1\n      swap2\n      sub\n      swap1\n      return\n        /* \"my_ico.sol\":229:262  uint public usd_to_mytoken = 1000 */\n    tag_6:\n      tag_18\n      tag_19\n      jump\t// in\n    tag_18:\n      mload(0x40)\n      dup1\n      dup3\n      dup2\n      mstore\n      0x20\n      add\n      swap2\n      pop\n      pop\n      mload(0x40)\n      dup1\n      swap2\n      sub\n      swap1\n      return\n        /* \"my_ico.sol\":1372:2017  function buy_tokens(address investor, uint usd_invested) public {\r... */\n    tag_7:\n      tag_20\n      0x04\n      dup1\n      calldatasize\n      sub\n        /* \"--CODEGEN--\":13:15   */\n      0x40\n        /* \"--CODEGEN--\":8:11   */\n      dup2\n        /* \"--CODEGEN--\":5:16   */\n      lt\n        /* \"--CODEGEN--\":2:4   */\n      iszero\n      tag_21\n      jumpi\n        /* \"--CODEGEN--\":29:30   */\n      0x00\n        /* \"--CODEGEN--\":26:27   */\n      dup1\n        /* \"--CODEGEN--\":19:31   */\n      revert\n        /* \"--CODEGEN--\":2:4   */\n    tag_21:\n        /* \"my_ico.sol\":1372:2017  function buy_tokens(address investor, uint usd_invested) public {\r... */\n      dup2\n      add\n      swap1\n      dup1\n      dup1\n      calldataload\n      0xffffffffffffffffffffffffffffffffffffffff\n      and\n      swap1\n      0x20\n      add\n      swap1\n      swap3\n      swap2\n      swap1\n      dup1\n      calldataload\n      swap1\n      0x20\n      add\n      swap1\n      swap3\n      swap2\n      swap1\n      pop\n      pop\n      pop\n      tag_22\n      jump\t// in\n    tag_20:\n      stop\n        /* \"my_ico.sol\":2026:2507  function sell_tokens(address investor, uint tokens_sold) public {\r... */\n    tag_8:\n      tag_23\n      0x04\n      dup1\n      calldatasize\n      sub\n        /* \"--CODEGEN--\":13:15   */\n      0x40\n        /* \"--CODEGEN--\":8:11   */\n      dup2\n        /* \"--CODEGEN--\":5:16   */\n      lt\n        /* \"--CODEGEN--\":2:4   */\n      iszero\n      tag_24\n      jumpi\n        /* \"--CODEGEN--\":29:30   */\n      0x00\n        /* \"--CODEGEN--\":26:27   */\n      dup1\n        /* \"--CODEGEN--\":19:31   */\n      revert\n        /* \"--CODEGEN--\":2:4   */\n    tag_24:\n        /* \"my_ico.sol\":2026:2507  function sell_tokens(address investor, uint tokens_sold) public {\r... */\n      dup2\n      add\n      swap1\n      dup1\n      dup1\n      calldataload\n      0xffffffffffffffffffffffffffffffffffffffff\n      and\n      swap1\n      0x20\n      add\n      swap1\n      swap3\n      swap2\n      swap1\n      dup1\n      calldataload\n      swap1\n      0x20\n      add\n      swap1\n      swap3\n      swap2\n      swap1\n      pop\n      pop\n      pop\n      tag_25\n      jump\t// in\n    tag_23:\n      stop\n        /* \"my_ico.sol\":814:1027  function equity_in_tokens(address investor) view public returns (uint) {\r... */\n    tag_9:\n      tag_26\n      0x04\n      dup1\n      calldatasize\n      sub\n        /* \"--CODEGEN--\":13:15   */\n      0x20\n        /* \"--CODEGEN--\":8:11   */\n      dup2\n        /* \"--CODEGEN--\":5:16   */\n      lt\n        /* \"--CODEGEN--\":2:4   */\n      iszero\n      tag_27\n      jumpi\n        /* \"--CODEGEN--\":29:30   */\n      0x00\n        /* \"--CODEGEN--\":26:27   */\n      dup1\n        /* \"--CODEGEN--\":19:31   */\n      revert\n        /* \"--CODEGEN--\":2:4   */\n    tag_27:\n        /* \"my_ico.sol\":814:1027  function equity_in_tokens(address investor) view public returns (uint) {\r... */\n      dup2\n      add\n      swap1\n      dup1\n      dup1\n      calldataload\n      0xffffffffffffffffffffffffffffffffffffffff\n      and\n      swap1\n      0x20\n      add\n      swap1\n      swap3\n      swap2\n      swap1\n      pop\n      pop\n      pop\n      tag_28\n      jump\t// in\n    tag_26:\n      mload(0x40)\n      dup1\n      dup3\n      dup2\n      mstore\n      0x20\n      add\n      swap2\n      pop\n      pop\n      mload(0x40)\n      dup1\n      swap2\n      sub\n      swap1\n      return\n        /* \"my_ico.sol\":271:304  uint public total_tokens_sold = 0 */\n    tag_12:\n      sload(0x02)\n      dup2\n      jump\t// out\n        /* \"my_ico.sol\":1191:1367  function equity_in_usd(address investor) view public returns (uint) {\r... */\n    tag_15:\n        /* \"my_ico.sol\":1253:1257  uint */\n      0x00\n        /* \"my_ico.sol\":1281:1291  equity_usd */\n      0x03\n        /* \"my_ico.sol\":1281:1301  equity_usd[investor] */\n      0x00\n        /* \"my_ico.sol\":1292:1300  investor */\n      dup4\n        /* \"my_ico.sol\":1281:1301  equity_usd[investor] */\n      0xffffffffffffffffffffffffffffffffffffffff\n      and\n      0xffffffffffffffffffffffffffffffffffffffff\n      and\n      dup2\n      mstore\n      0x20\n      add\n      swap1\n      dup2\n      mstore\n      0x20\n      add\n      0x00\n      keccak256\n      sload\n        /* \"my_ico.sol\":1274:1301  return equity_usd[investor] */\n      swap1\n      pop\n        /* \"my_ico.sol\":1191:1367  function equity_in_usd(address investor) view public returns (uint) {\r... */\n      swap2\n      swap1\n      pop\n      jump\t// out\n        /* \"my_ico.sol\":145:177  uint public max_tokens = 1000000 */\n    tag_17:\n      sload(0x00)\n      dup2\n      jump\t// out\n        /* \"my_ico.sol\":229:262  uint public usd_to_mytoken = 1000 */\n    tag_19:\n      sload(0x01)\n      dup2\n      jump\t// out\n        /* \"my_ico.sol\":1372:2017  function buy_tokens(address investor, uint usd_invested) public {\r... */\n    tag_22:\n        /* \"my_ico.sol\":1571:1581  max_tokens */\n      sload(0x00)\n        /* \"my_ico.sol\":1550:1567  total_tokens_sold */\n      sload(0x02)\n        /* \"my_ico.sol\":1533:1547  usd_to_mytoken */\n      sload(0x01)\n        /* \"my_ico.sol\":1518:1530  usd_invested */\n      dup4\n        /* \"my_ico.sol\":1518:1547  usd_invested * usd_to_mytoken */\n      mul\n        /* \"my_ico.sol\":1518:1567  usd_invested * usd_to_mytoken + total_tokens_sold */\n      add\n        /* \"my_ico.sol\":1518:1581  usd_invested * usd_to_mytoken + total_tokens_sold <= max_tokens */\n      gt\n      iszero\n        /* \"my_ico.sol\":1510:1642  require(usd_invested * usd_to_mytoken + total_tokens_sold <= max_tokens, 'Token supply is not enough. Please try some less amount.') */\n      tag_31\n      jumpi\n      mload(0x40)\n      0x08c379a000000000000000000000000000000000000000000000000000000000\n      dup2\n      mstore\n      0x04\n      add\n      dup1\n      dup1\n      0x20\n      add\n      dup3\n      dup2\n      sub\n      dup3\n      mstore\n      0x38\n      dup2\n      mstore\n      0x20\n      add\n      dup1\n      data_4d0c8401e58c9c36944f14766856f3f120cfc9afae0204558bce567932ecb55d\n      0x38\n      swap2\n      codecopy\n      0x40\n      add\n      swap2\n      pop\n      pop\n      mload(0x40)\n      dup1\n      swap2\n      sub\n      swap1\n      revert\n    tag_31:\n        /* \"my_ico.sol\":1647:1665  uint tokens_bought */\n      0x00\n        /* \"my_ico.sol\":1683:1697  usd_to_mytoken */\n      sload(0x01)\n        /* \"my_ico.sol\":1668:1680  usd_invested */\n      dup3\n        /* \"my_ico.sol\":1668:1697  usd_invested * usd_to_mytoken */\n      mul\n        /* \"my_ico.sol\":1647:1697  uint tokens_bought = usd_invested * usd_to_mytoken */\n      swap1\n      pop\n        /* \"my_ico.sol\":1810:1823  tokens_bought */\n      dup1\n        /* \"my_ico.sol\":1783:1796  equity_tokens */\n      0x04\n        /* \"my_ico.sol\":1783:1806  equity_tokens[investor] */\n      0x00\n        /* \"my_ico.sol\":1797:1805  investor */\n      dup6\n        /* \"my_ico.sol\":1783:1806  equity_tokens[investor] */\n      0xffffffffffffffffffffffffffffffffffffffff\n      and\n      0xffffffffffffffffffffffffffffffffffffffff\n      and\n      dup2\n      mstore\n      0x20\n      add\n      swap1\n      dup2\n      mstore\n      0x20\n      add\n      0x00\n      keccak256\n      0x00\n        /* \"my_ico.sol\":1783:1823  equity_tokens[investor] += tokens_bought */\n      dup3\n      dup3\n      sload\n      add\n      swap3\n      pop\n      pop\n      dup2\n      swap1\n      sstore\n      pop\n        /* \"my_ico.sol\":1889:1903  usd_to_mytoken */\n      sload(0x01)\n        /* \"my_ico.sol\":1863:1876  equity_tokens */\n      0x04\n        /* \"my_ico.sol\":1863:1886  equity_tokens[investor] */\n      0x00\n        /* \"my_ico.sol\":1877:1885  investor */\n      dup6\n        /* \"my_ico.sol\":1863:1886  equity_tokens[investor] */\n      0xffffffffffffffffffffffffffffffffffffffff\n      and\n      0xffffffffffffffffffffffffffffffffffffffff\n      and\n      dup2\n      mstore\n      0x20\n      add\n      swap1\n      dup2\n      mstore\n      0x20\n      add\n      0x00\n      keccak256\n      sload\n        /* \"my_ico.sol\":1863:1903  equity_tokens[investor] / usd_to_mytoken */\n      dup2\n      tag_32\n      jumpi\n      invalid\n    tag_32:\n      div\n        /* \"my_ico.sol\":1840:1850  equity_usd */\n      0x03\n        /* \"my_ico.sol\":1840:1860  equity_usd[investor] */\n      0x00\n        /* \"my_ico.sol\":1851:1859  investor */\n      dup6\n        /* \"my_ico.sol\":1840:1860  equity_usd[investor] */\n      0xffffffffffffffffffffffffffffffffffffffff\n      and\n      0xffffffffffffffffffffffffffffffffffffffff\n      and\n      dup2\n      mstore\n      0x20\n      add\n      swap1\n      dup2\n      mstore\n      0x20\n      add\n      0x00\n      keccak256\n        /* \"my_ico.sol\":1840:1903  equity_usd[investor] = equity_tokens[investor] / usd_to_mytoken */\n      dup2\n      swap1\n      sstore\n      pop\n        /* \"my_ico.sol\":1994:2007  tokens_bought */\n      dup1\n        /* \"my_ico.sol\":1973:1990  total_tokens_sold */\n      0x02\n      0x00\n        /* \"my_ico.sol\":1973:2007  total_tokens_sold += tokens_bought */\n      dup3\n      dup3\n      sload\n      add\n      swap3\n      pop\n      pop\n      dup2\n      swap1\n      sstore\n      pop\n        /* \"my_ico.sol\":1372:2017  function buy_tokens(address investor, uint usd_invested) public {\r... */\n      pop\n      pop\n      pop\n      jump\t// out\n        /* \"my_ico.sol\":2026:2507  function sell_tokens(address investor, uint tokens_sold) public {\r... */\n    tag_25:\n        /* \"my_ico.sol\":2237:2250  equity_tokens */\n      0x04\n        /* \"my_ico.sol\":2237:2260  equity_tokens[investor] */\n      0x00\n        /* \"my_ico.sol\":2251:2259  investor */\n      dup4\n        /* \"my_ico.sol\":2237:2260  equity_tokens[investor] */\n      0xffffffffffffffffffffffffffffffffffffffff\n      and\n      0xffffffffffffffffffffffffffffffffffffffff\n      and\n      dup2\n      mstore\n      0x20\n      add\n      swap1\n      dup2\n      mstore\n      0x20\n      add\n      0x00\n      keccak256\n      sload\n        /* \"my_ico.sol\":2224:2235  tokens_sold */\n      dup2\n        /* \"my_ico.sol\":2224:2260  tokens_sold<=equity_tokens[investor] */\n      gt\n      iszero\n        /* \"my_ico.sol\":2216:2322  require(tokens_sold<=equity_tokens[investor], 'Transaction failed, you do not have sufficient coin funds') */\n      tag_34\n      jumpi\n      mload(0x40)\n      0x08c379a000000000000000000000000000000000000000000000000000000000\n      dup2\n      mstore\n      0x04\n      add\n      dup1\n      dup1\n      0x20\n      add\n      dup3\n      dup2\n      sub\n      dup3\n      mstore\n      0x39\n      dup2\n      mstore\n      0x20\n      add\n      dup1\n      data_c700edecf9ecb1c9ef5fe1371306cfd10987cc75a3ba266a24d05cdd3ad795ee\n      0x39\n      swap2\n      codecopy\n      0x40\n      add\n      swap2\n      pop\n      pop\n      mload(0x40)\n      dup1\n      swap2\n      sub\n      swap1\n      revert\n    tag_34:\n        /* \"my_ico.sol\":2385:2396  tokens_sold */\n      dup1\n        /* \"my_ico.sol\":2358:2371  equity_tokens */\n      0x04\n        /* \"my_ico.sol\":2358:2381  equity_tokens[investor] */\n      0x00\n        /* \"my_ico.sol\":2372:2380  investor */\n      dup5\n        /* \"my_ico.sol\":2358:2381  equity_tokens[investor] */\n      0xffffffffffffffffffffffffffffffffffffffff\n      and\n      0xffffffffffffffffffffffffffffffffffffffff\n      and\n      dup2\n      mstore\n      0x20\n      add\n      swap1\n      dup2\n      mstore\n      0x20\n      add\n      0x00\n      keccak256\n      0x00\n        /* \"my_ico.sol\":2358:2396  equity_tokens[investor] -= tokens_sold */\n      dup3\n      dup3\n      sload\n      sub\n      swap3\n      pop\n      pop\n      dup2\n      swap1\n      sstore\n      pop\n        /* \"my_ico.sol\":2438:2452  usd_to_mytoken */\n      sload(0x01)\n        /* \"my_ico.sol\":2426:2437  tokens_sold */\n      dup2\n        /* \"my_ico.sol\":2426:2452  tokens_sold/usd_to_mytoken */\n      dup2\n      tag_35\n      jumpi\n      invalid\n    tag_35:\n      div\n        /* \"my_ico.sol\":2401:2411  equity_usd */\n      0x03\n        /* \"my_ico.sol\":2401:2421  equity_usd[investor] */\n      0x00\n        /* \"my_ico.sol\":2412:2420  investor */\n      dup5\n        /* \"my_ico.sol\":2401:2421  equity_usd[investor] */\n      0xffffffffffffffffffffffffffffffffffffffff\n      and\n      0xffffffffffffffffffffffffffffffffffffffff\n      and\n      dup2\n      mstore\n      0x20\n      add\n      swap1\n      dup2\n      mstore\n      0x20\n      add\n      0x00\n      keccak256\n      0x00\n        /* \"my_ico.sol\":2401:2453  equity_usd[investor] += (tokens_sold/usd_to_mytoken) */\n      dup3\n      dup3\n      sload\n      add\n      swap3\n      pop\n      pop\n      dup2\n      swap1\n      sstore\n      pop\n        /* \"my_ico.sol\":2481:2492  tokens_sold */\n      dup1\n        /* \"my_ico.sol\":2460:2477  total_tokens_sold */\n      0x02\n      0x00\n        /* \"my_ico.sol\":2460:2492  total_tokens_sold -= tokens_sold */\n      dup3\n      dup3\n      sload\n      sub\n      swap3\n      pop\n      pop\n      dup2\n      swap1\n      sstore\n      pop\n        /* \"my_ico.sol\":2026:2507  function sell_tokens(address investor, uint tokens_sold) public {\r... */\n      pop\n      pop\n      jump\t// out\n        /* \"my_ico.sol\":814:1027  function equity_in_tokens(address investor) view public returns (uint) {\r... */\n    tag_28:\n        /* \"my_ico.sol\":879:883  uint */\n      0x00\n        /* \"my_ico.sol\":907:920  equity_tokens */\n      0x04\n        /* \"my_ico.sol\":907:930  equity_tokens[investor] */\n      0x00\n        /* \"my_ico.sol\":921:929  investor */\n      dup4\n        /* \"my_ico.sol\":907:930  equity_tokens[investor] */\n      0xffffffffffffffffffffffffffffffffffffffff\n      and\n      0xffffffffffffffffffffffffffffffffffffffff\n      and\n      dup2\n      mstore\n      0x20\n      add\n      swap1\n      dup2\n      mstore\n      0x20\n      add\n      0x00\n      keccak256\n      sload\n        /* \"my_ico.sol\":900:930  return equity_tokens[investor] */\n      swap1\n      pop\n        /* \"my_ico.sol\":814:1027  function equity_in_tokens(address investor) view public returns (uint) {\r... */\n      swap2\n      swap1\n      pop\n      jump\t// out\n    stop\n    data_4d0c8401e58c9c36944f14766856f3f120cfc9afae0204558bce567932ecb55d 546f6b656e20737570706c79206973206e6f7420656e6f7567682e20506c656173652074727920736f6d65206c65737320616d6f756e742e\n    data_c700edecf9ecb1c9ef5fe1371306cfd10987cc75a3ba266a24d05cdd3ad795ee 5472616e73616374696f6e206661696c65642c20796f7520646f206e6f7420686176652073756666696369656e7420636f696e2066756e6473\n\n    auxdata: 0xa265627a7a723158204d917b0a03772b322631e78ce73070ec68a5c7d8fd06da034a7dae37038a311b64736f6c63430005110032\n}\n",
				"bytecode": {
					"linkReferences": {},
					"object": "6080604052620f42406000556103e8600155600060025534801561002257600080fd5b5061061f806100326000396000f3fe608060405234801561001057600080fd5b506004361061007d5760003560e01c80635de23c641161005b5780635de23c64146101165780636c22f68214610134578063d450d0f914610182578063fc4e3861146101d05761007d565b80630316b7c41461008257806310c51c1b146100a057806354572e09146100f8575b600080fd5b61008a610228565b6040518082815260200191505060405180910390f35b6100e2600480360360208110156100b657600080fd5b81019080803573ffffffffffffffffffffffffffffffffffffffff16906020019092919050505061022e565b6040518082815260200191505060405180910390f35b610100610277565b6040518082815260200191505060405180910390f35b61011e61027d565b6040518082815260200191505060405180910390f35b6101806004803603604081101561014a57600080fd5b81019080803573ffffffffffffffffffffffffffffffffffffffff16906020019092919080359060200190929190505050610283565b005b6101ce6004803603604081101561019857600080fd5b81019080803573ffffffffffffffffffffffffffffffffffffffff169060200190929190803590602001909291905050506103df565b005b610212600480360360208110156101e657600080fd5b81019080803573ffffffffffffffffffffffffffffffffffffffff169060200190929190505050610530565b6040518082815260200191505060405180910390f35b60025481565b6000600360008373ffffffffffffffffffffffffffffffffffffffff1673ffffffffffffffffffffffffffffffffffffffff168152602001908152602001600020549050919050565b60005481565b60015481565b60005460025460015483020111156102e6576040517f08c379a000000000000000000000000000000000000000000000000000000000815260040180806020018281038252603881526020018061057a6038913960400191505060405180910390fd5b60006001548202905080600460008573ffffffffffffffffffffffffffffffffffffffff1673ffffffffffffffffffffffffffffffffffffffff16815260200190815260200160002060008282540192505081905550600154600460008573ffffffffffffffffffffffffffffffffffffffff1673ffffffffffffffffffffffffffffffffffffffff168152602001908152602001600020548161038657fe5b04600360008573ffffffffffffffffffffffffffffffffffffffff1673ffffffffffffffffffffffffffffffffffffffff1681526020019081526020016000208190555080600260008282540192505081905550505050565b600460008373ffffffffffffffffffffffffffffffffffffffff1673ffffffffffffffffffffffffffffffffffffffff16815260200190815260200160002054811115610477576040517f08c379a00000000000000000000000000000000000000000000000000000000081526004018080602001828103825260398152602001806105b26039913960400191505060405180910390fd5b80600460008473ffffffffffffffffffffffffffffffffffffffff1673ffffffffffffffffffffffffffffffffffffffff1681526020019081526020016000206000828254039250508190555060015481816104cf57fe5b04600360008473ffffffffffffffffffffffffffffffffffffffff1673ffffffffffffffffffffffffffffffffffffffff16815260200190815260200160002060008282540192505081905550806002600082825403925050819055505050565b6000600460008373ffffffffffffffffffffffffffffffffffffffff1673ffffffffffffffffffffffffffffffffffffffff16815260200190815260200160002054905091905056fe546f6b656e20737570706c79206973206e6f7420656e6f7567682e20506c656173652074727920736f6d65206c65737320616d6f756e742e5472616e73616374696f6e206661696c65642c20796f7520646f206e6f7420686176652073756666696369656e7420636f696e2066756e6473a265627a7a723158204d917b0a03772b322631e78ce73070ec68a5c7d8fd06da034a7dae37038a311b64736f6c63430005110032",
					"opcodes": "PUSH1 0x80 PUSH1 0x40 MSTORE PUSH3 0xF4240 PUSH1 0x0 SSTORE PUSH2 0x3E8 PUSH1 0x1 SSTORE PUSH1 0x0 PUSH1 0x2 SSTORE CALLVALUE DUP1 ISZERO PUSH2 0x22 JUMPI PUSH1 0x0 DUP1 REVERT JUMPDEST POP PUSH2 0x61F DUP1 PUSH2 0x32 PUSH1 0x0 CODECOPY PUSH1 0x0 RETURN INVALID PUSH1 0x80 PUSH1 0x40 MSTORE CALLVALUE DUP1 ISZERO PUSH2 0x10 JUMPI PUSH1 0x0 DUP1 REVERT JUMPDEST POP PUSH1 0x4 CALLDATASIZE LT PUSH2 0x7D JUMPI PUSH1 0x0 CALLDATALOAD PUSH1 0xE0 SHR DUP1 PUSH4 0x5DE23C64 GT PUSH2 0x5B JUMPI DUP1 PUSH4 0x5DE23C64 EQ PUSH2 0x116 JUMPI DUP1 PUSH4 0x6C22F682 EQ PUSH2 0x134 JUMPI DUP1 PUSH4 0xD450D0F9 EQ PUSH2 0x182 JUMPI DUP1 PUSH4 0xFC4E3861 EQ PUSH2 0x1D0 JUMPI PUSH2 0x7D JUMP JUMPDEST DUP1 PUSH4 0x316B7C4 EQ PUSH2 0x82 JUMPI DUP1 PUSH4 0x10C51C1B EQ PUSH2 0xA0 JUMPI DUP1 PUSH4 0x54572E09 EQ PUSH2 0xF8 JUMPI JUMPDEST PUSH1 0x0 DUP1 REVERT JUMPDEST PUSH2 0x8A PUSH2 0x228 JUMP JUMPDEST PUSH1 0x40 MLOAD DUP1 DUP3 DUP2 MSTORE PUSH1 0x20 ADD SWAP2 POP POP PUSH1 0x40 MLOAD DUP1 SWAP2 SUB SWAP1 RETURN JUMPDEST PUSH2 0xE2 PUSH1 0x4 DUP1 CALLDATASIZE SUB PUSH1 0x20 DUP2 LT ISZERO PUSH2 0xB6 JUMPI PUSH1 0x0 DUP1 REVERT JUMPDEST DUP2 ADD SWAP1 DUP1 DUP1 CALLDATALOAD PUSH20 0xFFFFFFFFFFFFFFFFFFFFFFFFFFFFFFFFFFFFFFFF AND SWAP1 PUSH1 0x20 ADD SWAP1 SWAP3 SWAP2 SWAP1 POP POP POP PUSH2 0x22E JUMP JUMPDEST PUSH1 0x40 MLOAD DUP1 DUP3 DUP2 MSTORE PUSH1 0x20 ADD SWAP2 POP POP PUSH1 0x40 MLOAD DUP1 SWAP2 SUB SWAP1 RETURN JUMPDEST PUSH2 0x100 PUSH2 0x277 JUMP JUMPDEST PUSH1 0x40 MLOAD DUP1 DUP3 DUP2 MSTORE PUSH1 0x20 ADD SWAP2 POP POP PUSH1 0x40 MLOAD DUP1 SWAP2 SUB SWAP1 RETURN JUMPDEST PUSH2 0x11E PUSH2 0x27D JUMP JUMPDEST PUSH1 0x40 MLOAD DUP1 DUP3 DUP2 MSTORE PUSH1 0x20 ADD SWAP2 POP POP PUSH1 0x40 MLOAD DUP1 SWAP2 SUB SWAP1 RETURN JUMPDEST PUSH2 0x180 PUSH1 0x4 DUP1 CALLDATASIZE SUB PUSH1 0x40 DUP2 LT ISZERO PUSH2 0x14A JUMPI PUSH1 0x0 DUP1 REVERT JUMPDEST DUP2 ADD SWAP1 DUP1 DUP1 CALLDATALOAD PUSH20 0xFFFFFFFFFFFFFFFFFFFFFFFFFFFFFFFFFFFFFFFF AND SWAP1 PUSH1 0x20 ADD SWAP1 SWAP3 SWAP2 SWAP1 DUP1 CALLDATALOAD SWAP1 PUSH1 0x20 ADD SWAP1 SWAP3 SWAP2 SWAP1 POP POP POP PUSH2 0x283 JUMP JUMPDEST STOP JUMPDEST PUSH2 0x1CE PUSH1 0x4 DUP1 CALLDATASIZE SUB PUSH1 0x40 DUP2 LT ISZERO PUSH2 0x198 JUMPI PUSH1 0x0 DUP1 REVERT JUMPDEST DUP2 ADD SWAP1 DUP1 DUP1 CALLDATALOAD PUSH20 0xFFFFFFFFFFFFFFFFFFFFFFFFFFFFFFFFFFFFFFFF AND SWAP1 PUSH1 0x20 ADD SWAP1 SWAP3 SWAP2 SWAP1 DUP1 CALLDATALOAD SWAP1 PUSH1 0x20 ADD SWAP1 SWAP3 SWAP2 SWAP1 POP POP POP PUSH2 0x3DF JUMP JUMPDEST STOP JUMPDEST PUSH2 0x212 PUSH1 0x4 DUP1 CALLDATASIZE SUB PUSH1 0x20 DUP2 LT ISZERO PUSH2 0x1E6 JUMPI PUSH1 0x0 DUP1 REVERT JUMPDEST DUP2 ADD SWAP1 DUP1 DUP1 CALLDATALOAD PUSH20 0xFFFFFFFFFFFFFFFFFFFFFFFFFFFFFFFFFFFFFFFF AND SWAP1 PUSH1 0x20 ADD SWAP1 SWAP3 SWAP2 SWAP1 POP POP POP PUSH2 0x530 JUMP JUMPDEST PUSH1 0x40 MLOAD DUP1 DUP3 DUP2 MSTORE PUSH1 0x20 ADD SWAP2 POP POP PUSH1 0x40 MLOAD DUP1 SWAP2 SUB SWAP1 RETURN JUMPDEST PUSH1 0x2 SLOAD DUP2 JUMP JUMPDEST PUSH1 0x0 PUSH1 0x3 PUSH1 0x0 DUP4 PUSH20 0xFFFFFFFFFFFFFFFFFFFFFFFFFFFFFFFFFFFFFFFF AND PUSH20 0xFFFFFFFFFFFFFFFFFFFFFFFFFFFFFFFFFFFFFFFF AND DUP2 MSTORE PUSH1 0x20 ADD SWAP1 DUP2 MSTORE PUSH1 0x20 ADD PUSH1 0x0 KECCAK256 SLOAD SWAP1 POP SWAP2 SWAP1 POP JUMP JUMPDEST PUSH1 0x0 SLOAD DUP2 JUMP JUMPDEST PUSH1 0x1 SLOAD DUP2 JUMP JUMPDEST PUSH1 0x0 SLOAD PUSH1 0x2 SLOAD PUSH1 0x1 SLOAD DUP4 MUL ADD GT ISZERO PUSH2 0x2E6 JUMPI PUSH1 0x40 MLOAD PUSH32 0x8C379A000000000000000000000000000000000000000000000000000000000 DUP2 MSTORE PUSH1 0x4 ADD DUP1 DUP1 PUSH1 0x20 ADD DUP3 DUP2 SUB DUP3 MSTORE PUSH1 0x38 DUP2 MSTORE PUSH1 0x20 ADD DUP1 PUSH2 0x57A PUSH1 0x38 SWAP2 CODECOPY PUSH1 0x40 ADD SWAP2 POP POP PUSH1 0x40 MLOAD DUP1 SWAP2 SUB SWAP1 REVERT JUMPDEST PUSH1 0x0 PUSH1 0x1 SLOAD DUP3 MUL SWAP1 POP DUP1 PUSH1 0x4 PUSH1 0x0 DUP6 PUSH20 0xFFFFFFFFFFFFFFFFFFFFFFFFFFFFFFFFFFFFFFFF AND PUSH20 0xFFFFFFFFFFFFFFFFFFFFFFFFFFFFFFFFFFFFFFFF AND DUP2 MSTORE PUSH1 0x20 ADD SWAP1 DUP2 MSTORE PUSH1 0x20 ADD PUSH1 0x0 KECCAK256 PUSH1 0x0 DUP3 DUP3 SLOAD ADD SWAP3 POP POP DUP2 SWAP1 SSTORE POP PUSH1 0x1 SLOAD PUSH1 0x4 PUSH1 0x0 DUP6 PUSH20 0xFFFFFFFFFFFFFFFFFFFFFFFFFFFFFFFFFFFFFFFF AND PUSH20 0xFFFFFFFFFFFFFFFFFFFFFFFFFFFFFFFFFFFFFFFF AND DUP2 MSTORE PUSH1 0x20 ADD SWAP1 DUP2 MSTORE PUSH1 0x20 ADD PUSH1 0x0 KECCAK256 SLOAD DUP2 PUSH2 0x386 JUMPI INVALID JUMPDEST DIV PUSH1 0x3 PUSH1 0x0 DUP6 PUSH20 0xFFFFFFFFFFFFFFFFFFFFFFFFFFFFFFFFFFFFFFFF AND PUSH20 0xFFFFFFFFFFFFFFFFFFFFFFFFFFFFFFFFFFFFFFFF AND DUP2 MSTORE PUSH1 0x20 ADD SWAP1 DUP2 MSTORE PUSH1 0x20 ADD PUSH1 0x0 KECCAK256 DUP2 SWAP1 SSTORE POP DUP1 PUSH1 0x2 PUSH1 0x0 DUP3 DUP3 SLOAD ADD SWAP3 POP POP DUP2 SWAP1 SSTORE POP POP POP POP JUMP JUMPDEST PUSH1 0x4 PUSH1 0x0 DUP4 PUSH20 0xFFFFFFFFFFFFFFFFFFFFFFFFFFFFFFFFFFFFFFFF AND PUSH20 0xFFFFFFFFFFFFFFFFFFFFFFFFFFFFFFFFFFFFFFFF AND DUP2 MSTORE PUSH1 0x20 ADD SWAP1 DUP2 MSTORE PUSH1 0x20 ADD PUSH1 0x0 KECCAK256 SLOAD DUP2 GT ISZERO PUSH2 0x477 JUMPI PUSH1 0x40 MLOAD PUSH32 0x8C379A000000000000000000000000000000000000000000000000000000000 DUP2 MSTORE PUSH1 0x4 ADD DUP1 DUP1 PUSH1 0x20 ADD DUP3 DUP2 SUB DUP3 MSTORE PUSH1 0x39 DUP2 MSTORE PUSH1 0x20 ADD DUP1 PUSH2 0x5B2 PUSH1 0x39 SWAP2 CODECOPY PUSH1 0x40 ADD SWAP2 POP POP PUSH1 0x40 MLOAD DUP1 SWAP2 SUB SWAP1 REVERT JUMPDEST DUP1 PUSH1 0x4 PUSH1 0x0 DUP5 PUSH20 0xFFFFFFFFFFFFFFFFFFFFFFFFFFFFFFFFFFFFFFFF AND PUSH20 0xFFFFFFFFFFFFFFFFFFFFFFFFFFFFFFFFFFFFFFFF AND DUP2 MSTORE PUSH1 0x20 ADD SWAP1 DUP2 MSTORE PUSH1 0x20 ADD PUSH1 0x0 KECCAK256 PUSH1 0x0 DUP3 DUP3 SLOAD SUB SWAP3 POP POP DUP2 SWAP1 SSTORE POP PUSH1 0x1 SLOAD DUP2 DUP2 PUSH2 0x4CF JUMPI INVALID JUMPDEST DIV PUSH1 0x3 PUSH1 0x0 DUP5 PUSH20 0xFFFFFFFFFFFFFFFFFFFFFFFFFFFFFFFFFFFFFFFF AND PUSH20 0xFFFFFFFFFFFFFFFFFFFFFFFFFFFFFFFFFFFFFFFF AND DUP2 MSTORE PUSH1 0x20 ADD SWAP1 DUP2 MSTORE PUSH1 0x20 ADD PUSH1 0x0 KECCAK256 PUSH1 0x0 DUP3 DUP3 SLOAD ADD SWAP3 POP POP DUP2 SWAP1 SSTORE POP DUP1 PUSH1 0x2 PUSH1 0x0 DUP3 DUP3 SLOAD SUB SWAP3 POP POP DUP2 SWAP1 SSTORE POP POP POP JUMP JUMPDEST PUSH1 0x0 PUSH1 0x4 PUSH1 0x0 DUP4 PUSH20 0xFFFFFFFFFFFFFFFFFFFFFFFFFFFFFFFFFFFFFFFF AND PUSH20 0xFFFFFFFFFFFFFFFFFFFFFFFFFFFFFFFFFFFFFFFF AND DUP2 MSTORE PUSH1 0x20 ADD SWAP1 DUP2 MSTORE PUSH1 0x20 ADD PUSH1 0x0 KECCAK256 SLOAD SWAP1 POP SWAP2 SWAP1 POP JUMP INVALID SLOAD PUSH16 0x6B656E20737570706C79206973206E6F PUSH21 0x20656E6F7567682E20506C65617365207472792073 PUSH16 0x6D65206C65737320616D6F756E742E54 PUSH19 0x616E73616374696F6E206661696C65642C2079 PUSH16 0x7520646F206E6F742068617665207375 PUSH7 0x66696369656E74 KECCAK256 PUSH4 0x6F696E20 PUSH7 0x756E6473A26562 PUSH27 0x7A723158204D917B0A03772B322631E78CE73070EC68A5C7D8FD06 0xDA SUB 0x4A PUSH30 0xAE37038A311B64736F6C6343000511003200000000000000000000000000 "
				},
				"gasEstimates": {
					"creation": {
						"codeDepositCost": "313400",
						"executionCost": "45367",
						"totalCost": "358767"
					},
					"external": {
						"buy_tokens(address,uint256)": "infinite",
						"equity_in_tokens(address)": "1262",
						"equity_in_usd(address)": "1219",
						"max_tokens()": "1050",
						"sell_tokens(address,uint256)": "infinite",
						"total_tokens_sold()": "1006",
						"usd_to_mytoken()": "1005"
					}
				},
				"methodIdentifiers": {
					"buy_tokens(address,uint256)": "6c22f682",
					"equity_in_tokens(address)": "fc4e3861",
					"equity_in_usd(address)": "10c51c1b",
					"max_tokens()": "54572e09",
					"sell_tokens(address,uint256)": "d450d0f9",
					"total_tokens_sold()": "0316b7c4",
					"usd_to_mytoken()": "5de23c64"
				}
			},
			"userdoc": {
				"methods": {}
			}
		}
	}
}